{"contracts/GoldOracle.sol":{"GoldOracle":{"abi":[{"inputs":[],"stateMutability":"nonpayable","type":"constructor"},{"anonymous":false,"inputs":[{"indexed":true,"internalType":"address","name":"previousOwner","type":"address"},{"indexed":true,"internalType":"address","name":"newOwner","type":"address"}],"name":"OwnershipTransferred","type":"event"},{"anonymous":false,"inputs":[{"indexed":false,"internalType":"uint256","name":"gram","type":"uint256"},{"indexed":false,"internalType":"uint256","name":"ounce","type":"uint256"},{"indexed":false,"internalType":"uint256","name":"k24","type":"uint256"},{"indexed":false,"internalType":"uint256","name":"k22","type":"uint256"},{"indexed":false,"internalType":"uint256","name":"k18","type":"uint256"},{"indexed":false,"internalType":"uint256","name":"timestamp","type":"uint256"}],"name":"PricesUpdated","type":"event"},{"inputs":[],"name":"DECIMALS","outputs":[{"internalType":"uint8","name":"","type":"uint8"}],"stateMutability":"view","type":"function"},{"inputs":[],"name":"STALENESS_THRESHOLD","outputs":[{"internalType":"uint256","name":"","type":"uint256"}],"stateMutability":"view","type":"function"},{"inputs":[],"name":"getAllPrices","outputs":[{"components":[{"internalType":"uint256","name":"pricePerGram","type":"uint256"},{"internalType":"uint256","name":"pricePerOunce","type":"uint256"},{"internalType":"uint256","name":"pricePerKarat24","type":"uint256"},{"internalType":"uint256","name":"pricePerKarat22","type":"uint256"},{"internalType":"uint256","name":"pricePerKarat18","type":"uint256"},{"internalType":"uint256","name":"lastUpdated","type":"uint256"}],"internalType":"struct IGoldOracle.PriceData","name":"","type":"tuple"}],"stateMutability":"view","type":"function"},{"inputs":[{"internalType":"uint8","name":"karat","type":"uint8"}],"name":"getGoldPriceByKarat","outputs":[{"internalType":"uint256","name":"","type":"uint256"}],"stateMutability":"view","type":"function"},{"inputs":[],"name":"getGoldPricePerGram","outputs":[{"internalType":"uint256","name":"","type":"uint256"}],"stateMutability":"view","type":"function"},{"inputs":[],"name":"getGoldPricePerOunce","outputs":[{"internalType":"uint256","name":"","type":"uint256"}],"stateMutability":"view","type":"function"},{"inputs":[],"name":"getLastUpdated","outputs":[{"internalType":"uint256","name":"","type":"uint256"}],"stateMutability":"view","type":"function"},{"inputs":[],"name":"isStale","outputs":[{"internalType":"bool","name":"","type":"bool"}],"stateMutability":"view","type":"function"},{"inputs":[],"name":"lastUpdated","outputs":[{"internalType":"uint256","name":"","type":"uint256"}],"stateMutability":"view","type":"function"},{"inputs":[],"name":"owner","outputs":[{"internalType":"address","name":"","type":"address"}],"stateMutability":"view","type":"function"},{"inputs":[],"name":"pricePerGram","outputs":[{"internalType":"uint256","name":"","type":"uint256"}],"stateMutability":"view","type":"function"},{"inputs":[],"name":"pricePerKarat18","outputs":[{"internalType":"uint256","name":"","type":"uint256"}],"stateMutability":"view","type":"function"},{"inputs":[],"name":"pricePerKarat22","outputs":[{"internalType":"uint256","name":"","type":"uint256"}],"stateMutability":"view","type":"function"},{"inputs":[],"name":"pricePerKarat24","outputs":[{"internalType":"uint256","name":"","type":"uint256"}],"stateMutability":"view","type":"function"},{"inputs":[],"name":"pricePerOunce","outputs":[{"internalType":"uint256","name":"","type":"uint256"}],"stateMutability":"view","type":"function"},{"inputs":[{"internalType":"address","name":"newOwner","type":"address"}],"name":"transferOwnership","outputs":[],"stateMutability":"nonpayable","type":"function"},{"inputs":[{"internalType":"uint256","name":"_gram","type":"uint256"},{"internalType":"uint256","name":"_ounce","type":"uint256"},{"internalType":"uint256","name":"_k24","type":"uint256"},{"internalType":"uint256","name":"_k22","type":"uint256"},{"internalType":"uint256","name":"_k18","type":"uint256"}],"name":"updatePrices","outputs":[],"stateMutability":"nonpayable","type":"function"}],"evm":{"bytecode":{"linkReferences":{},"object":"608060405234801561001057600080fd5b50600680546001600160a01b031916339081179091556040516000907f8be0079c531659141344cd1fd0a4f28419497f9722a3daafe3b4186f6b6457e0908290a36107ef806100606000396000f3fe608060405234801561001057600080fd5b506004361061010b5760003560e01c80634e0344f4116100a25780638da5cb5b116100715780638da5cb5b1461020157806396df6e791461022c578063d0b06f5d14610241578063f2fde38b1461024a578063fb009b151461025d57600080fd5b80634e0344f4146101de57806353f4429f146101e75780637215b0bf146101f057806378121dd4146101f957600080fd5b80632e0f2625116100de5780632e0f26251461015457806333adf0a31461016e5780633aeb2d3314610181578063445df9d61461018a57600080fd5b8063067bf64b14610110578063156ba6fe1461012c5780631a26f447146101345780631c18aa751461014c575b600080fd5b61011960015481565b6040519081526020015b60405180910390f35b600054610119565b61013c610266565b6040519015158152602001610123565b600154610119565b61015c600881565b60405160ff9091168152602001610123565b61011961017c3660046106c1565b61028f565b61011960035481565b610192610331565b6040516101239190600060c082019050825182526020830151602083015260408301516040830152606083015160608301526080830151608083015260a083015160a083015292915050565b61011960045481565b61011960025481565b610119610e1081565b600554610119565b600654610214906001600160a01b031681565b6040516001600160a01b039091168152602001610123565b61023f61023a3660046106eb565b6103a8565b005b61011960055481565b61023f610258366004610726565b6105dd565b61011960005481565b60006005546000036102785750600190565b610e1060055442610289919061074f565b11905090565b60008160ff166018036102a457505060025490565b8160ff166016036102b757505060035490565b8160ff166012036102ca57505060045490565b60405162461bcd60e51b815260206004820152603160248201527f476f6c644f7261636c653a20696e76616c6964206b6172617420286d7573742060448201527062652031382c2032322c206f722032342960781b60648201526084015b60405180910390fd5b61036a6040518060c001604052806000815260200160008152602001600081526020016000815260200160008152602001600081525090565b6040518060c0016040528060005481526020016001548152602001600254815260200160035481526020016004548152602001600554815250905090565b6006546001600160a01b031633146103d25760405162461bcd60e51b815260040161032890610776565b600085116104225760405162461bcd60e51b815260206004820152601e60248201527f476f6c644f7261636c653a20696e76616c6964206772616d20707269636500006044820152606401610328565b600084116104725760405162461bcd60e51b815260206004820152601f60248201527f476f6c644f7261636c653a20696e76616c6964206f756e6365207072696365006044820152606401610328565b600083116104c25760405162461bcd60e51b815260206004820152601d60248201527f476f6c644f7261636c653a20696e76616c69642032344b2070726963650000006044820152606401610328565b600082116105125760405162461bcd60e51b815260206004820152601d60248201527f476f6c644f7261636c653a20696e76616c69642032324b2070726963650000006044820152606401610328565b600081116105625760405162461bcd60e51b815260206004820152601d60248201527f476f6c644f7261636c653a20696e76616c69642031384b2070726963650000006044820152606401610328565b600085905560018490556002839055600382905560048190554260058190556040805187815260208101879052808201869052606081018590526080810184905260a0810192909252517fc73ec39986e464014d46dae8bdefb70d710adbcc1c342b49333817b40f4ab5259181900360c00190a15050505050565b6006546001600160a01b031633146106075760405162461bcd60e51b815260040161032890610776565b6001600160a01b03811661066f5760405162461bcd60e51b815260206004820152602960248201527f476f6c644f7261636c653a206e6577206f776e657220697320746865207a65726044820152686f206164647265737360b81b6064820152608401610328565b600680546001600160a01b038381166001600160a01b0319831681179093556040519116919082907f8be0079c531659141344cd1fd0a4f28419497f9722a3daafe3b4186f6b6457e090600090a35050565b6000602082840312156106d357600080fd5b813560ff811681146106e457600080fd5b9392505050565b600080600080600060a0868803121561070357600080fd5b505083359560208501359550604085013594606081013594506080013592509050565b60006020828403121561073857600080fd5b81356001600160a01b03811681146106e457600080fd5b8181038181111561077057634e487b7160e01b600052601160045260246000fd5b92915050565b60208082526023908201527f476f6c644f7261636c653a2063616c6c6572206973206e6f7420746865206f776040820152623732b960e91b60608201526080019056fea2646970667358221220555abefafcb15fec9b29cc6c23995df64bfd79d7afa05105a713c2b5badabcac64736f6c63430008140033","opcodes":"PUSH1 0x80 PUSH1 0x40 MSTORE CALLVALUE DUP1 ISZERO PUSH2 0x10 JUMPI PUSH1 0x0 DUP1 REVERT JUMPDEST POP PUSH1 0x6 DUP1 SLOAD PUSH1 0x1 PUSH1 0x1 PUSH1 0xA0 SHL SUB NOT AND CALLER SWAP1 DUP2 OR SWAP1 SWAP2 SSTORE PUSH1 0x40 MLOAD PUSH1 0x0 SWAP1 PUSH32 0x8BE0079C531659141344CD1FD0A4F28419497F9722A3DAAFE3B4186F6B6457E0 SWAP1 DUP3 SWAP1 LOG3 PUSH2 0x7EF DUP1 PUSH2 0x60 PUSH1 0x0 CODECOPY PUSH1 0x0 RETURN INVALID PUSH1 0x80 PUSH1 0x40 MSTORE CALLVALUE DUP1 ISZERO PUSH2 0x10 JUMPI PUSH1 0x0 DUP1 REVERT JUMPDEST POP PUSH1 0x4 CALLDATASIZE LT PUSH2 0x10B JUMPI PUSH1 0x0 CALLDATALOAD PUSH1 0xE0 SHR DUP1 PUSH4 0x4E0344F4 GT PUSH2 0xA2 JUMPI DUP1 PUSH4 0x8DA5CB5B GT PUSH2 0x71 JUMPI DUP1 PUSH4 0x8DA5CB5B EQ PUSH2 0x201 JUMPI DUP1 PUSH4 0x96DF6E79 EQ PUSH2 0x22C JUMPI DUP1 PUSH4 0xD0B06F5D EQ PUSH2 0x241 JUMPI DUP1 PUSH4 0xF2FDE38B EQ PUSH2 0x24A JUMPI DUP1 PUSH4 0xFB009B15 EQ PUSH2 0x25D JUMPI PUSH1 0x0 DUP1 REVERT JUMPDEST DUP1 PUSH4 0x4E0344F4 EQ PUSH2 0x1DE JUMPI DUP1 PUSH4 0x53F4429F EQ PUSH2 0x1E7 JUMPI DUP1 PUSH4 0x7215B0BF EQ PUSH2 0x1F0 JUMPI DUP1 PUSH4 0x78121DD4 EQ PUSH2 0x1F9 JUMPI PUSH1 0x0 DUP1 REVERT JUMPDEST DUP1 PUSH4 0x2E0F2625 GT PUSH2 0xDE JUMPI DUP1 PUSH4 0x2E0F2625 EQ PUSH2 0x154 JUMPI DUP1 PUSH4 0x33ADF0A3 EQ PUSH2 0x16E JUMPI DUP1 PUSH4 0x3AEB2D33 EQ PUSH2 0x181 JUMPI DUP1 PUSH4 0x445DF9D6 EQ PUSH2 0x18A JUMPI PUSH1 0x0 DUP1 REVERT JUMPDEST DUP1 PUSH4 0x67BF64B EQ PUSH2 0x110 JUMPI DUP1 PUSH4 0x156BA6FE EQ PUSH2 0x12C JUMPI DUP1 PUSH4 0x1A26F447 EQ PUSH2 0x134 JUMPI DUP1 PUSH4 0x1C18AA75 EQ PUSH2 0x14C JUMPI JUMPDEST PUSH1 0x0 DUP1 REVERT JUMPDEST PUSH2 0x119 PUSH1 0x1 SLOAD DUP2 JUMP JUMPDEST PUSH1 0x40 MLOAD SWAP1 DUP2 MSTORE PUSH1 0x20 ADD JUMPDEST PUSH1 0x40 MLOAD DUP1 SWAP2 SUB SWAP1 RETURN JUMPDEST PUSH1 0x0 SLOAD PUSH2 0x119 JUMP JUMPDEST PUSH2 0x13C PUSH2 0x266 JUMP JUMPDEST PUSH1 0x40 MLOAD SWAP1 ISZERO ISZERO DUP2 MSTORE PUSH1 0x20 ADD PUSH2 0x123 JUMP JUMPDEST PUSH1 0x1 SLOAD PUSH2 0x119 JUMP JUMPDEST PUSH2 0x15C PUSH1 0x8 DUP2 JUMP JUMPDEST PUSH1 0x40 MLOAD PUSH1 0xFF SWAP1 SWAP2 AND DUP2 MSTORE PUSH1 0x20 ADD PUSH2 0x123 JUMP JUMPDEST PUSH2 0x119 PUSH2 0x17C CALLDATASIZE PUSH1 0x4 PUSH2 0x6C1 JUMP JUMPDEST PUSH2 0x28F JUMP JUMPDEST PUSH2 0x119 PUSH1 0x3 SLOAD DUP2 JUMP JUMPDEST PUSH2 0x192 PUSH2 0x331 JUMP JUMPDEST PUSH1 0x40 MLOAD PUSH2 0x123 SWAP2 SWAP1 PUSH1 0x0 PUSH1 0xC0 DUP3 ADD SWAP1 POP DUP3 MLOAD DUP3 MSTORE PUSH1 0x20 DUP4 ADD MLOAD PUSH1 0x20 DUP4 ADD MSTORE PUSH1 0x40 DUP4 ADD MLOAD PUSH1 0x40 DUP4 ADD MSTORE PUSH1 0x60 DUP4 ADD MLOAD PUSH1 0x60 DUP4 ADD MSTORE PUSH1 0x80 DUP4 ADD MLOAD PUSH1 0x80 DUP4 ADD MSTORE PUSH1 0xA0 DUP4 ADD MLOAD PUSH1 0xA0 DUP4 ADD MSTORE SWAP3 SWAP2 POP POP JUMP JUMPDEST PUSH2 0x119 PUSH1 0x4 SLOAD DUP2 JUMP JUMPDEST PUSH2 0x119 PUSH1 0x2 SLOAD DUP2 JUMP JUMPDEST PUSH2 0x119 PUSH2 0xE10 DUP2 JUMP JUMPDEST PUSH1 0x5 SLOAD PUSH2 0x119 JUMP JUMPDEST PUSH1 0x6 SLOAD PUSH2 0x214 SWAP1 PUSH1 0x1 PUSH1 0x1 PUSH1 0xA0 SHL SUB AND DUP2 JUMP JUMPDEST PUSH1 0x40 MLOAD PUSH1 0x1 PUSH1 0x1 PUSH1 0xA0 SHL SUB SWAP1 SWAP2 AND DUP2 MSTORE PUSH1 0x20 ADD PUSH2 0x123 JUMP JUMPDEST PUSH2 0x23F PUSH2 0x23A CALLDATASIZE PUSH1 0x4 PUSH2 0x6EB JUMP JUMPDEST PUSH2 0x3A8 JUMP JUMPDEST STOP JUMPDEST PUSH2 0x119 PUSH1 0x5 SLOAD DUP2 JUMP JUMPDEST PUSH2 0x23F PUSH2 0x258 CALLDATASIZE PUSH1 0x4 PUSH2 0x726 JUMP JUMPDEST PUSH2 0x5DD JUMP JUMPDEST PUSH2 0x119 PUSH1 0x0 SLOAD DUP2 JUMP JUMPDEST PUSH1 0x0 PUSH1 0x5 SLOAD PUSH1 0x0 SUB PUSH2 0x278 JUMPI POP PUSH1 0x1 SWAP1 JUMP JUMPDEST PUSH2 0xE10 PUSH1 0x5 SLOAD TIMESTAMP PUSH2 0x289 SWAP2 SWAP1 PUSH2 0x74F JUMP JUMPDEST GT SWAP1 POP SWAP1 JUMP JUMPDEST PUSH1 0x0 DUP2 PUSH1 0xFF AND PUSH1 0x18 SUB PUSH2 0x2A4 JUMPI POP POP PUSH1 0x2 SLOAD SWAP1 JUMP JUMPDEST DUP2 PUSH1 0xFF AND PUSH1 0x16 SUB PUSH2 0x2B7 JUMPI POP POP PUSH1 0x3 SLOAD SWAP1 JUMP JUMPDEST DUP2 PUSH1 0xFF AND PUSH1 0x12 SUB PUSH2 0x2CA JUMPI POP POP PUSH1 0x4 SLOAD SWAP1 JUMP JUMPDEST PUSH1 0x40 MLOAD PUSH3 0x461BCD PUSH1 0xE5 SHL DUP2 MSTORE PUSH1 0x20 PUSH1 0x4 DUP3 ADD MSTORE PUSH1 0x31 PUSH1 0x24 DUP3 ADD MSTORE PUSH32 0x476F6C644F7261636C653A20696E76616C6964206B6172617420286D75737420 PUSH1 0x44 DUP3 ADD MSTORE PUSH17 0x62652031382C2032322C206F7220323429 PUSH1 0x78 SHL PUSH1 0x64 DUP3 ADD MSTORE PUSH1 0x84 ADD JUMPDEST PUSH1 0x40 MLOAD DUP1 SWAP2 SUB SWAP1 REVERT JUMPDEST PUSH2 0x36A PUSH1 0x40 MLOAD DUP1 PUSH1 0xC0 ADD PUSH1 0x40 MSTORE DUP1 PUSH1 0x0 DUP2 MSTORE PUSH1 0x20 ADD PUSH1 0x0 DUP2 MSTORE PUSH1 0x20 ADD PUSH1 0x0 DUP2 MSTORE PUSH1 0x20 ADD PUSH1 0x0 DUP2 MSTORE PUSH1 0x20 ADD PUSH1 0x0 DUP2 MSTORE PUSH1 0x20 ADD PUSH1 0x0 DUP2 MSTORE POP SWAP1 JUMP JUMPDEST PUSH1 0x40 MLOAD DUP1 PUSH1 0xC0 ADD PUSH1 0x40 MSTORE DUP1 PUSH1 0x0 SLOAD DUP2 MSTORE PUSH1 0x20 ADD PUSH1 0x1 SLOAD DUP2 MSTORE PUSH1 0x20 ADD PUSH1 0x2 SLOAD DUP2 MSTORE PUSH1 0x20 ADD PUSH1 0x3 SLOAD DUP2 MSTORE PUSH1 0x20 ADD PUSH1 0x4 SLOAD DUP2 MSTORE PUSH1 0x20 ADD PUSH1 0x5 SLOAD DUP2 MSTORE POP SWAP1 POP SWAP1 JUMP JUMPDEST PUSH1 0x6 SLOAD PUSH1 0x1 PUSH1 0x1 PUSH1 0xA0 SHL SUB AND CALLER EQ PUSH2 0x3D2 JUMPI PUSH1 0x40 MLOAD PUSH3 0x461BCD PUSH1 0xE5 SHL DUP2 MSTORE PUSH1 0x4 ADD PUSH2 0x328 SWAP1 PUSH2 0x776 JUMP JUMPDEST PUSH1 0x0 DUP6 GT PUSH2 0x422 JUMPI PUSH1 0x40 MLOAD PUSH3 0x461BCD PUSH1 0xE5 SHL DUP2 MSTORE PUSH1 0x20 PUSH1 0x4 DUP3 ADD MSTORE PUSH1 0x1E PUSH1 0x24 DUP3 ADD MSTORE PUSH32 0x476F6C644F7261636C653A20696E76616C6964206772616D2070726963650000 PUSH1 0x44 DUP3 ADD MSTORE PUSH1 0x64 ADD PUSH2 0x328 JUMP JUMPDEST PUSH1 0x0 DUP5 GT PUSH2 0x472 JUMPI PUSH1 0x40 MLOAD PUSH3 0x461BCD PUSH1 0xE5 SHL DUP2 MSTORE PUSH1 0x20 PUSH1 0x4 DUP3 ADD MSTORE PUSH1 0x1F PUSH1 0x24 DUP3 ADD MSTORE PUSH32 0x476F6C644F7261636C653A20696E76616C6964206F756E636520707269636500 PUSH1 0x44 DUP3 ADD MSTORE PUSH1 0x64 ADD PUSH2 0x328 JUMP JUMPDEST PUSH1 0x0 DUP4 GT PUSH2 0x4C2 JUMPI PUSH1 0x40 MLOAD PUSH3 0x461BCD PUSH1 0xE5 SHL DUP2 MSTORE PUSH1 0x20 PUSH1 0x4 DUP3 ADD MSTORE PUSH1 0x1D PUSH1 0x24 DUP3 ADD MSTORE PUSH32 0x476F6C644F7261636C653A20696E76616C69642032344B207072696365000000 PUSH1 0x44 DUP3 ADD MSTORE PUSH1 0x64 ADD PUSH2 0x328 JUMP JUMPDEST PUSH1 0x0 DUP3 GT PUSH2 0x512 JUMPI PUSH1 0x40 MLOAD PUSH3 0x461BCD PUSH1 0xE5 SHL DUP2 MSTORE PUSH1 0x20 PUSH1 0x4 DUP3 ADD MSTORE PUSH1 0x1D PUSH1 0x24 DUP3 ADD MSTORE PUSH32 0x476F6C644F7261636C653A20696E76616C69642032324B207072696365000000 PUSH1 0x44 DUP3 ADD MSTORE PUSH1 0x64 ADD PUSH2 0x328 JUMP JUMPDEST PUSH1 0x0 DUP2 GT PUSH2 0x562 JUMPI PUSH1 0x40 MLOAD PUSH3 0x461BCD PUSH1 0xE5 SHL DUP2 MSTORE PUSH1 0x20 PUSH1 0x4 DUP3 ADD MSTORE PUSH1 0x1D PUSH1 0x24 DUP3 ADD MSTORE PUSH32 0x476F6C644F7261636C653A20696E76616C69642031384B207072696365000000 PUSH1 0x44 DUP3 ADD MSTORE PUSH1 0x64 ADD PUSH2 0x328 JUMP JUMPDEST PUSH1 0x0 DUP6 SWAP1 SSTORE PUSH1 0x1 DUP5 SWAP1 SSTORE PUSH1 0x2 DUP4 SWAP1 SSTORE PUSH1 0x3 DUP3 SWAP1 SSTORE PUSH1 0x4 DUP2 SWAP1 SSTORE TIMESTAMP PUSH1 0x5 DUP2 SWAP1 SSTORE PUSH1 0x40 DUP1 MLOAD DUP8 DUP2 MSTORE PUSH1 0x20 DUP2 ADD DUP8 SWAP1 MSTORE DUP1 DUP3 ADD DUP7 SWAP1 MSTORE PUSH1 0x60 DUP2 ADD DUP6 SWAP1 MSTORE PUSH1 0x80 DUP2 ADD DUP5 SWAP1 MSTORE PUSH1 0xA0 DUP2 ADD SWAP3 SWAP1 SWAP3 MSTORE MLOAD PUSH32 0xC73EC39986E464014D46DAE8BDEFB70D710ADBCC1C342B49333817B40F4AB525 SWAP2 DUP2 SWAP1 SUB PUSH1 0xC0 ADD SWAP1 LOG1 POP POP POP POP POP JUMP JUMPDEST PUSH1 0x6 SLOAD PUSH1 0x1 PUSH1 0x1 PUSH1 0xA0 SHL SUB AND CALLER EQ PUSH2 0x607 JUMPI PUSH1 0x40 MLOAD PUSH3 0x461BCD PUSH1 0xE5 SHL DUP2 MSTORE PUSH1 0x4 ADD PUSH2 0x328 SWAP1 PUSH2 0x776 JUMP JUMPDEST PUSH1 0x1 PUSH1 0x1 PUSH1 0xA0 SHL SUB DUP2 AND PUSH2 0x66F JUMPI PUSH1 0x40 MLOAD PUSH3 0x461BCD PUSH1 0xE5 SHL DUP2 MSTORE PUSH1 0x20 PUSH1 0x4 DUP3 ADD MSTORE PUSH1 0x29 PUSH1 0x24 DUP3 ADD MSTORE PUSH32 0x476F6C644F7261636C653A206E6577206F776E657220697320746865207A6572 PUSH1 0x44 DUP3 ADD MSTORE PUSH9 0x6F2061646472657373 PUSH1 0xB8 SHL PUSH1 0x64 DUP3 ADD MSTORE PUSH1 0x84 ADD PUSH2 0x328 JUMP JUMPDEST PUSH1 0x6 DUP1 SLOAD PUSH1 0x1 PUSH1 0x1 PUSH1 0xA0 SHL SUB DUP4 DUP2 AND PUSH1 0x1 PUSH1 0x1 PUSH1 0xA0 SHL SUB NOT DUP4 AND DUP2 OR SWAP1 SWAP4 SSTORE PUSH1 0x40 MLOAD SWAP2 AND SWAP2 SWAP1 DUP3 SWAP1 PUSH32 0x8BE0079C531659141344CD1FD0A4F28419497F9722A3DAAFE3B4186F6B6457E0 SWAP1 PUSH1 0x0 SWAP1 LOG3 POP POP JUMP JUMPDEST PUSH1 0x0 PUSH1 0x20 DUP3 DUP5 SUB SLT ISZERO PUSH2 0x6D3 JUMPI PUSH1 0x0 DUP1 REVERT JUMPDEST DUP2 CALLDATALOAD PUSH1 0xFF DUP2 AND DUP2 EQ PUSH2 0x6E4 JUMPI PUSH1 0x0 DUP1 REVERT JUMPDEST SWAP4 SWAP3 POP POP POP JUMP JUMPDEST PUSH1 0x0 DUP1 PUSH1 0x0 DUP1 PUSH1 0x0 PUSH1 0xA0 DUP7 DUP9 SUB SLT ISZERO PUSH2 0x703 JUMPI PUSH1 0x0 DUP1 REVERT JUMPDEST POP POP DUP4 CALLDATALOAD SWAP6 PUSH1 0x20 DUP6 ADD CALLDATALOAD SWAP6 POP PUSH1 0x40 DUP6 ADD CALLDATALOAD SWAP5 PUSH1 0x60 DUP2 ADD CALLDATALOAD SWAP5 POP PUSH1 0x80 ADD CALLDATALOAD SWAP3 POP SWAP1 POP JUMP JUMPDEST PUSH1 0x0 PUSH1 0x20 DUP3 DUP5 SUB SLT ISZERO PUSH2 0x738 JUMPI PUSH1 0x0 DUP1 REVERT JUMPDEST DUP2 CALLDATALOAD PUSH1 0x1 PUSH1 0x1 PUSH1 0xA0 SHL SUB DUP2 AND DUP2 EQ PUSH2 0x6E4 JUMPI PUSH1 0x0 DUP1 REVERT JUMPDEST DUP2 DUP2 SUB DUP2 DUP2 GT ISZERO PUSH2 0x770 JUMPI PUSH4 0x4E487B71 PUSH1 0xE0 SHL PUSH1 0x0 MSTORE PUSH1 0x11 PUSH1 0x4 MSTORE PUSH1 0x24 PUSH1 0x0 REVERT JUMPDEST SWAP3 SWAP2 POP POP JUMP JUMPDEST PUSH1 0x20 DUP1 DUP3 MSTORE PUSH1 0x23 SWAP1 DUP3 ADD MSTORE PUSH32 0x476F6C644F7261636C653A2063616C6C6572206973206E6F7420746865206F77 PUSH1 0x40 DUP3 ADD MSTORE PUSH3 0x3732B9 PUSH1 0xE9 SHL PUSH1 0x60 DUP3 ADD MSTORE PUSH1 0x80 ADD SWAP1 JUMP INVALID LOG2 PUSH5 0x6970667358 0x22 SLT KECCAK256 SSTORE GAS 0xBE STATICCALL 0xFC 0xB1 PUSH0 0xEC SWAP12 0x29 0xCC PUSH13 0x23995DF64BFD79D7AFA05105A7 SGT 0xC2 0xB5 0xBA 0xDA 0xBC 0xAC PUSH5 0x736F6C6343 STOP ADDMOD EQ STOP CALLER "},"methodIdentifiers":{"DECIMALS()":"2e0f2625","STALENESS_THRESHOLD()":"7215b0bf","getAllPrices()":"445df9d6","getGoldPriceByKarat(uint8)":"33adf0a3","getGoldPricePerGram()":"156ba6fe","getGoldPricePerOunce()":"1c18aa75","getLastUpdated()":"78121dd4","isStale()":"1a26f447","lastUpdated()":"d0b06f5d","owner()":"8da5cb5b","pricePerGram()":"fb009b15","pricePerKarat18()":"4e0344f4","pricePerKarat22()":"3aeb2d33","pricePerKarat24()":"53f4429f","pricePerOunce()":"067bf64b","transferOwnership(address)":"f2fde38b","updatePrices(uint256,uint256,uint256,uint256,uint256)":"96df6e79"}}}}}