{
  "_format": "hh-sol-artifact-1",
  "contractName": "GoldOracle",
  "sourceName": "contracts/GoldOracle.sol",
  "abi": [
    {
      "inputs": [],
      "stateMutability": "nonpayable",
      "type": "constructor"
    },
    {
      "anonymous": false,
      "inputs": [
        {
          "indexed": true,
          "internalType": "address",
          "name": "previousOwner",
          "type": "address"
        },
        {
          "indexed": true,
          "internalType": "address",
          "name": "newOwner",
          "type": "address"
        }
      ],
      "name": "OwnershipTransferred",
      "type": "event"
    },
    {
      "anonymous": false,
      "inputs": [
        {
          "indexed": false,
          "internalType": "uint256",
          "name": "gram",
          "type": "uint256"
        },
        {
          "indexed": false,
          "internalType": "uint256",
          "name": "ounce",
          "type": "uint256"
        },
        {
          "indexed": false,
          "internalType": "uint256",
          "name": "k24",
          "type": "uint256"
        },
        {
          "indexed": false,
          "internalType": "uint256",
          "name": "k22",
          "type": "uint256"
        },
        {
          "indexed": false,
          "internalType": "uint256",
          "name": "k18",
          "type": "uint256"
        },
        {
          "indexed": false,
          "internalType": "uint256",
          "name": "timestamp",
          "type": "uint256"
        }
      ],
      "name": "PricesUpdated",
      "type": "event"
    },
    {
      "inputs": [],
      "name": "DECIMALS",
      "outputs": [
        {
          "internalType": "uint8",
          "name": "",
          "type": "uint8"
        }
      ],
      "stateMutability": "view",
      "type": "function"
    },
    {
      "inputs": [],
      "name": "STALENESS_THRESHOLD",
      "outputs": [
        {
          "internalType": "uint256",
          "name": "",
          "type": "uint256"
        }
      ],
      "stateMutability": "view",
      "type": "function"
    },
    {
      "inputs": [],
      "name": "getAllPrices",
      "outputs": [
        {
          "components": [
            {
              "internalType": "uint256",
              "name": "pricePerGram",
              "type": "uint256"
            },
            {
              "internalType": "uint256",
              "name": "pricePerOunce",
              "type": "uint256"
            },
            {
              "internalType": "uint256",
              "name": "pricePerKarat24",
              "type": "uint256"
            },
            {
              "internalType": "uint256",
              "name": "pricePerKarat22",
              "type": "uint256"
            },
            {
              "internalType": "uint256",
              "name": "pricePerKarat18",
              "type": "uint256"
            },
            {
              "internalType": "uint256",
              "name": "lastUpdated",
              "type": "uint256"
            }
          ],
          "internalType": "struct IGoldOracle.PriceData",
          "name": "",
          "type": "tuple"
        }
      ],
      "stateMutability": "view",
      "type": "function"
    },
    {
      "inputs": [
        {
          "internalType": "uint8",
          "name": "karat",
          "type": "uint8"
        }
      ],
      "name": "getGoldPriceByKarat",
      "outputs": [
        {
          "internalType": "uint256",
          "name": "",
          "type": "uint256"
        }
      ],
      "stateMutability": "view",
      "type": "function"
    },
    {
      "inputs": [],
      "name": "getGoldPricePerGram",
      "outputs": [
        {
          "internalType": "uint256",
          "name": "",
          "type": "uint256"
        }
      ],
      "stateMutability": "view",
      "type": "function"
    },
    {
      "inputs": [],
      "name": "getGoldPricePerOunce",
      "outputs": [
        {
          "internalType": "uint256",
          "name": "",
          "type": "uint256"
        }
      ],
      "stateMutability": "view",
      "type": "function"
    },
    {
      "inputs": [],
      "name": "getLastUpdated",
      "outputs": [
        {
          "internalType": "uint256",
          "name": "",
          "type": "uint256"
        }
      ],
      "stateMutability": "view",
      "type": "function"
    },
    {
      "inputs": [],
      "name": "isStale",
      "outputs": [
        {
          "internalType": "bool",
          "name": "",
          "type": "bool"
        }
      ],
      "stateMutability": "view",
      "type": "function"
    },
    {
      "inputs": [],
      "name": "lastUpdated",
      "outputs": [
        {
          "internalType": "uint256",
          "name": "",
          "type": "uint256"
        }
      ],
      "stateMutability": "view",
      "type": "function"
    },
    {
      "inputs": [],
      "name": "owner",
      "outputs": [
        {
          "internalType": "address",
          "name": "",
          "type": "address"
        }
      ],
      "stateMutability": "view",
      "type": "function"
    },
    {
      "inputs": [],
      "name": "pricePerGram",
      "outputs": [
        {
          "internalType": "uint256",
          "name": "",
          "type": "uint256"
        }
      ],
      "stateMutability": "view",
      "type": "function"
    },
    {
      "inputs": [],
      "name": "pricePerKarat18",
      "outputs": [
        {
          "internalType": "uint256",
          "name": "",
          "type": "uint256"
        }
      ],
      "stateMutability": "view",
      "type": "function"
    },
    {
      "inputs": [],
      "name": "pricePerKarat22",
      "outputs": [
        {
          "internalType": "uint256",
          "name": "",
          "type": "uint256"
        }
      ],
      "stateMutability": "view",
      "type": "function"
    },
    {
      "inputs": [],
      "name": "pricePerKarat24",
      "outputs": [
        {
          "internalType": "uint256",
          "name": "",
          "type": "uint256"
        }
      ],
      "stateMutability": "view",
      "type": "function"
    },
    {
      "inputs": [],
      "name": "pricePerOunce",
      "outputs": [
        {
          "internalType": "uint256",
          "name": "",
          "type": "uint256"
        }
      ],
      "stateMutability": "view",
      "type": "function"
    },
    {
      "inputs": [
        {
          "internalType": "address",
          "name": "newOwner",
          "type": "address"
        }
      ],
      "name": "transferOwnership",
      "outputs": [],
      "stateMutability": "nonpayable",
      "type": "function"
    },
    {
      "inputs": [
        {
          "internalType": "uint256",
          "name": "_gram",
          "type": "uint256"
        },
        {
          "internalType": "uint256",
          "name": "_ounce",
          "type": "uint256"
        },
        {
          "internalType": "uint256",
          "name": "_k24",
          "type": "uint256"
        },
        {
          "internalType": "uint256",
          "name": "_k22",
          "type": "uint256"
        },
        {
          "internalType": "uint256",
          "name": "_k18",
          "type": "uint256"
        }
      ],
      "name": "updatePrices",
      "outputs": [],
      "stateMutability": "nonpayable",
      "type": "function"
    }
  ],
  "bytecode": "0x608060405234801561001057600080fd5b50600680546001600160a01b031916339081179091556040516000907f8be0079c531659141344cd1fd0a4f28419497f9722a3daafe3b4186f6b6457e0908290a36107ef806100606000396000f3fe608060405234801561001057600080fd5b506004361061010b5760003560e01c80634e0344f4116100a25780638da5cb5b116100715780638da5cb5b1461020157806396df6e791461022c578063d0b06f5d14610241578063f2fde38b1461024a578063fb009b151461025d57600080fd5b80634e0344f4146101de57806353f4429f146101e75780637215b0bf146101f057806378121dd4146101f957600080fd5b80632e0f2625116100de5780632e0f26251461015457806333adf0a31461016e5780633aeb2d3314610181578063445df9d61461018a57600080fd5b8063067bf64b14610110578063156ba6fe1461012c5780631a26f447146101345780631c18aa751461014c575b600080fd5b61011960015481565b6040519081526020015b60405180910390f35b600054610119565b61013c610266565b6040519015158152602001610123565b600154610119565b61015c600881565b60405160ff9091168152602001610123565b61011961017c3660046106c1565b61028f565b61011960035481565b610192610331565b6040516101239190600060c082019050825182526020830151602083015260408301516040830152606083015160608301526080830151608083015260a083015160a083015292915050565b61011960045481565b61011960025481565b610119610e1081565b600554610119565b600654610214906001600160a01b031681565b6040516001600160a01b039091168152602001610123565b61023f61023a3660046106eb565b6103a8565b005b61011960055481565b61023f610258366004610726565b6105dd565b61011960005481565b60006005546000036102785750600190565b610e1060055442610289919061074f565b11905090565b60008160ff166018036102a457505060025490565b8160ff166016036102b757505060035490565b8160ff166012036102ca57505060045490565b60405162461bcd60e51b815260206004820152603160248201527f476f6c644f7261636c653a20696e76616c6964206b6172617420286d7573742060448201527062652031382c2032322c206f722032342960781b60648201526084015b60405180910390fd5b61036a6040518060c001604052806000815260200160008152602001600081526020016000815260200160008152602001600081525090565b6040518060c0016040528060005481526020016001548152602001600254815260200160035481526020016004548152602001600554815250905090565b6006546001600160a01b031633146103d25760405162461bcd60e51b815260040161032890610776565b600085116104225760405162461bcd60e51b815260206004820152601e60248201527f476f6c644f7261636c653a20696e76616c6964206772616d20707269636500006044820152606401610328565b600084116104725760405162461bcd60e51b815260206004820152601f60248201527f476f6c644f7261636c653a20696e76616c6964206f756e6365207072696365006044820152606401610328565b600083116104c25760405162461bcd60e51b815260206004820152601d60248201527f476f6c644f7261636c653a20696e76616c69642032344b2070726963650000006044820152606401610328565b600082116105125760405162461bcd60e51b815260206004820152601d60248201527f476f6c644f7261636c653a20696e76616c69642032324b2070726963650000006044820152606401610328565b600081116105625760405162461bcd60e51b815260206004820152601d60248201527f476f6c644f7261636c653a20696e76616c69642031384b2070726963650000006044820152606401610328565b600085905560018490556002839055600382905560048190554260058190556040805187815260208101879052808201869052606081018590526080810184905260a0810192909252517fc73ec39986e464014d46dae8bdefb70d710adbcc1c342b49333817b40f4ab5259181900360c00190a15050505050565b6006546001600160a01b031633146106075760405162461bcd60e51b815260040161032890610776565b6001600160a01b03811661066f5760405162461bcd60e51b815260206004820152602960248201527f476f6c644f7261636c653a206e6577206f776e657220697320746865207a65726044820152686f206164647265737360b81b6064820152608401610328565b600680546001600160a01b038381166001600160a01b0319831681179093556040519116919082907f8be0079c531659141344cd1fd0a4f28419497f9722a3daafe3b4186f6b6457e090600090a35050565b6000602082840312156106d357600080fd5b813560ff811681146106e457600080fd5b9392505050565b600080600080600060a0868803121561070357600080fd5b505083359560208501359550604085013594606081013594506080013592509050565b60006020828403121561073857600080fd5b81356001600160a01b03811681146106e457600080fd5b8181038181111561077057634e487b7160e01b600052601160045260246000fd5b92915050565b60208082526023908201527f476f6c644f7261636c653a2063616c6c6572206973206e6f7420746865206f776040820152623732b960e91b60608201526080019056fea2646970667358221220555abefafcb15fec9b29cc6c23995df64bfd79d7afa05105a713c2b5badabcac64736f6c63430008140033",
  "linkReferences": {},
  "deployedLinkReferences": {}
}